:100000000C9434000C9451000C9451000C94510049
:100010000C9451000C9451000C9451000C9451001C
:100020000C9451000C9451000C9451000C941D023E
:100030000C9451000C9451000C9451000C945100FC
:100040000C9451000C9451000C9451000C945100EC
:100050000C9451000C9451000C9451000C945100DC
:100060000C9451000C94510011241FBECFEFD8E026
:10007000DEBFCDBF11E0A0E0B1E0EEECF7E002C0E2
:1000800005900D92A031B107D9F721E0A0E1B1E0D0
:1000900001C01D92AC31B207E1F70E94F6010C9449
:1000A000E5030C940000FC0182819381823091056C
:1000B00079F01CF4019739F008958330910569F0C7
:1000C000049781F0089585B18C6F85B929980895BA
:1000D00085B18A6F85B92A98089585B1866F85B9EB
:1000E0002B98089585B18E6E85B92C9808950F933D
:1000F0001F93CF93DF93EC01CB018A01EC81FD814B
:100100002AE030E0B9010E946E0295838483EC817D
:10011000FD8177836683EC81FD81C801B9010E946E
:100120006E0291838083EC81FD8173836283EE8113
:10013000FF81CE010995DF91CF911F910F91089515
:10014000982F990F990F9BB986FB882780F988B95A
:100150000895EF92FF920F931F93CF93DF938C013B
:10016000E12CF12CC0E0D0E02196F801D383C283CA
:10017000C8010E945300F801A481B581AE0DBF1DD6
:10018000208131818D919C91F901E80FF91F8081C7
:100190000E94A00087E99AE30197F1F700C00000F0
:1001A00092E0E90EF11CC430D105F1F6DF91CF9158
:1001B0001F910F91FF90EF9008958FEF8AB984B946
:1001C00081E087B910921401109215011092160166
:1001D0001092170187E19DE3909389008093880036
:1001E000E1E8F0E0808188608083AFE6B0E08C9148
:1001F00082608C93808185608083789408950F93CA
:100200001F93CF93DF93CDB7DEB72A970FB6F8943D
:10021000DEBF0FBECDBF8AE0E6E0F1E0DE01119661
:1002200001900D928A95E1F78CE090E00E94B8026F
:100230008C018AE090E00E94B802D8018D939C93D3
:10024000DE01119620E030E08D91F801408151816E
:10025000FA01E20FF31F80832F5F3F4F2A303105F1
:1002600099F7D80113961C921E92129788E090E09D
:100270000E94B802F8019583848380E090E0D80161
:100280001496ED91FC911597E80FF91F11821082D9
:1002900002968830910599F783E590E019969C9332
:1002A0008E93189789EA90E017969C938E931697F1
:1002B00087E790E01B969C938E931A9710921001FB
:1002C000109211011092120110921301C8012A9686
:1002D0000FB6F894DEBF0FBECDBFDF91CF911F9157
:1002E0000F9108958F929F92AF92BF92CF92DF921B
:1002F000EF92FF920F931F93CF93DF937C01DC016A
:100300001A96ED91FC911B9740E050E060E070E0A0
:100310000995A12CB12CC12CD12CC0E0D0E000E07B
:1003200010E0812C912C36C0D7011A96ED91FC91EA
:100330001B97AE01B801C701099586B1883049F411
:10034000B6E0CB16D1042CF00F5F1F4FC82CD92C70
:1003500006C086B1883019F48FEFC81AD80A86B162
:10036000803141F4A6E0AA16B10424F02196A82C0D
:10037000B92C06C086B1803119F4BFEFAB1ABB0AA5
:10038000CC33D10514F0C82DD92D0C30110514F043
:10039000082D192D86B1843039F68CE3809FA00199
:1003A000819F500D11244C0F5D1F052E000C660B14
:1003B000770B4093100150931101609312017093D9
:1003C000130110921401109215011092160110924F
:1003D0001701DF91CF911F910F91FF90EF90DF9068
:1003E000CF90BF90AF909F908F9008950E94FF0094
:1003F000EC010E94DD000F2EFCE3CF2ED12CE12C6E
:10040000F12CF02D60911001709111018091120179
:1004100090911301A70196010E94820289019A011D
:10042000EA85FB85AB01B801CE01099586B1823022
:1004300049F7CE010E947201E5CF1F920F920FB6CD
:100440000F9211242F938F939F93AF93BF9380911B
:10045000140190911501A0911601B09117018B33F1
:100460009105A105B10528F180911001909111012C
:10047000A0911201B0911301813D22E09207A105E4
:10048000B10518F080E090E0DC010196A11DB11DDE
:100490008093100190931101A0931201B093130166
:1004A000109214011092150110921601109217016A
:1004B0000BC00196A11DB11D8093140190931501ED
:1004C000A0931601B0931701BF91AF919F918F91A7
:1004D0002F910F900FBE0F901F90189597FB072E2E
:1004E00016F4009407D077FD09D00E94A40207FCFF
:1004F00005D03EF4909581959F4F08957095619534
:100500007F4F0895A1E21A2EAA1BBB1BFD010DC04F
:10051000AA1FBB1FEE1FFF1FA217B307E407F507B3
:1005200020F0A21BB30BE40BF50B661F771F881F8F
:10053000991F1A9469F760957095809590959B0125
:10054000AC01BD01CF010895AA1BBB1B51E107C03F
:10055000AA1FBB1FA617B70710F0A61BB70B881F53
:10056000991F5A95A9F780959095BC01CD010895E2
:10057000CF93DF938230910510F482E090E0E09118
:100580001A01F0911B0120E030E0C0E0D0E030978C
:1005900011F14081518148175907C0F04817590798
:1005A00061F482819381209719F09B838A832BC009
:1005B00090931B0180931A0126C02115310519F073
:1005C0004217530718F49A01BE01DF01EF010280C0
:1005D000F381E02DDCCF2115310509F1281B390B02
:1005E0002430310590F412968D919C9113976115EA
:1005F000710521F0FB019383828304C090931B015A
:1006000080931A01FD01329644C0FD01E20FF31FF1
:1006100081939193225031092D933C933AC02091BC
:10062000180130911901232B41F4209102013091DE
:10063000030130931901209318012091000130919A
:1006400001012115310541F42DB73EB74091040158
:1006500050910501241B350BE0911801F09119010F
:10066000E217F307A0F42E1B3F0B2817390778F089
:10067000AC014E5F5F4F2417350748F04E0F5F1FE8
:1006800050931901409318018193919302C0E0E0C7
:10069000F0E0CF01DF91CF9108950F931F93CF9397
:1006A000DF93009709F48CC0FC0132971382128209
:1006B00000911A0110911B010115110581F420818F
:1006C0003181820F931F2091180130911901281751
:1006D000390779F5F0931901E093180171C0D80139
:1006E00040E050E0AE17BF0750F412962D913C91B8
:1006F0001397AD012115310509F1D901F3CF9D0102
:10070000DA013383228360817181860F971F8217FC
:10071000930769F4EC0128813981260F371F2E5F7A
:100720003F4F318320838A819B8193838283452B32
:1007300029F4F0931B01E0931A0142C01396FC9335
:10074000EE931297ED01499159919E01240F351FA7
:10075000E217F30771F480819181840F951F02964F
:1007600011969C938E938281938113969C938E9382
:100770001297E0E0F0E0D80112968D919C911397CA
:10078000009719F0F8018C01F6CF8D919C9198019A
:100790002E5F3F4F820F931F209118013091190156
:1007A0002817390769F4309729F410921B01109229
:1007B0001A0102C0138212821093190100931801CA
:0E07C000DF91CF911F910F910895F894FFCF14
:1007CE0000001C0120003F065B4F666D7D277F6792
:00000001FF
